:020000040800F2
:100000000000012091130108D1780008DD78000874
:10001000E5780008ED780008F57800080000000099
:10002000000000000000000000000000FD78000853
:1000300009790008000000001579000821790008FE
:10004000D9130108D9130108D9130108D9130108DC
:10005000D9130108D9130108D9130108D9130108CC
:10006000D9130108D9130108D9130108D9130108BC
:10007000D9130108D9130108D9130108D9130108AC
:10008000D9130108D9130108D913010831790008DF
:1000900045790008D9130108D9130108D9130108BB
:1000A000D9130108D9130108D9130108D91301087C
:1000B000D9130108D9130108D9130108D91301086C
:1000C000D9130108D9130108D9130108D91301085C
:1000D000D9130108D9130108D9130108D91301084C
:1000E000D9130108D9130108D9130108D91301083C
:1000F000D9130108D9130108D9130108D91301082C
:10010000D9130108D9130108D9130108D91301081B
:10011000D9130108D913010859790008D913010826
:10012000D9130108D9130108D9130108D9130108FB
:1001300000000000000000000000000000000000BF
:1001400000000000000000000000000000000000AF
:10015000000000000000000000000000000000009F
:10016000000000000000000000000000000000008F
:10017000000000000000000000000000000000007F
:10018000000000000000000000000000000000006F
:10019000000000000000000000000000000000005F
:1001A000000000000000000000000000000000004F
:1001B000000000000000000000000000000000003F
:1001C000000000000000000000000000000000002F
:1001D000000000000000000000000000000000001F
:0401E0005FF8E0F1F3
:1001E40010B5054C237833B9044B13B10448AFF36D
:1001F40000800123237010BD2805002000000000AA
:10020400DC130108084B10B51BB108490848AFF3CB
:1002140000800848036803B910BD074B002BFBD0CE
:10022400BDE81040184700BF000000002C05002066
:10023400DC130108280500200000000080B483B00E
:1002440000AF7860034A7B68136000BF0C37BD467B
:1002540080BC70474405002080B582B000AF0346DF
:10026400FB71164B1B68013303F01F02144B1B6810
:100274009A4207D1134B1B68002B1BD0114B1B68F0
:10028400984717E00D4B1B68DB000F4A1344082204
:100294000021184610F0B6FF084B1B680A49FA798A
:1002A40001F83320054B1B68013303F01F03034A95
:1002B400136000E000BF0837BD4680BD480600203B
:1002C4004C060020440500204805002080B582B07B
:1002D40000AF03463960FB71144B1B68013303F014
:1002E4001F02134B1B689A4207D1124B1B68002B49
:1002F40018D0104B1B68984714E00C4B1B680E4930
:10030400FA7901F83320094B1B680B4ADB001344CC
:100314003A685A60054B1B68013303F01F03034A14
:10032400136000E000BF0837BD4680BD48060020CA
:100334004C060020440500204805002080B582B00A
:1003440000AF7860144B1A68144B1B689A4208D1AA
:1003540008220021786810F055FF7B68FF221A708C
:1003640015E00E4B1B680E4A12F933207B681A7095
:100374000A4B1B687A680A49DB000B445B685360CC
:10038400064B1B68013303F01F03044A136000BFCC
:100394000837BD4680BD00BF480600204C0600203B
:1003A4004805002080B485B000AF78607B6803F016
:1003B4000703FB600C4BDB68BB60BA684FF6FF03B6
:1003C4001340BB60FB681A02BB68134343F0BF636E
:1003D40043F40033BB60044ABB68D36000BF1437E6
:1003E400BD4680BC704700BF00ED00E080B400AFA4
:1003F400044BDB6803F4E0631B0A1846BD4680BC6B
:10040400704700BF00ED00E080B483B000AF034646
:10041400FB71084997F907305B09FA7902F01F026A
:10042400012000FA02F241F8232000BF0C37BD4638
:1004340080BC704700E100E080B483B000AF0346A5
:10044400FB71094997F907305B09FA7902F01F0239
:10045400012000FA02F2203341F8232000BF0C37B8
:10046400BD4680BC704700BF00E100E080B483B0AB
:1004740000AF0346FB71094A97F907305B09403323
:1004840052F82320FB7903F01F0322FA03F303F04D
:10049400010318460C37BD4680BC704700E100E0FC
:1004A40080B483B000AF0346FB71094997F9073064
:1004B4005B09FA7902F01F02012000FA02F24033CC
:1004C40041F8232000BF0C37BD4680BC704700BFF5
:1004D40000E100E080B483B000AF0346FB7109493A
:1004E40097F907305B09FA7902F01F02012000FA3C
:1004F40002F2603341F8232000BF0C37BD4680BCB4
:10050400704700BF00E100E080B483B000AF034651
:10051400FB71094A97F907305B09803352F82320AD
:10052400FB7903F01F0322FA03F303F001031846D7
:100534000C37BD4680BC704700E100E080B483B056
:1005440000AF03463960FB7197F90730002B0BDAD3
:100554000D49FB7903F00F03043B3A68D2B2120150
:10056400D2B20B441A7609E0084997F907303A6881
:10057400D2B21201D2B20B4483F8002300BF0C376D
:10058400BD4680BC704700BF00ED00E000E100E024
:1005940080B483B000AF0346FB7197F90730002B9A
:1005A4000ADA0C4AFB7903F00F03043B13441B7E65
:1005B400DBB21B09DBB208E0074A97F907301344A2
:1005C40093F80033DBB21B09DBB218460C37BD4687
:1005D40080BC704700ED00E000E100E080B489B029
:1005E40000AFF860B9607A60FB6803F00703FB6151
:1005F400FB69C3F10703042B28BF0423BB61FB6918
:100604000433062B02D9FB69033B00E000237B6122
:100614000122BB6902FA03F35A1EBB681A407B69C4
:100624009A4001217B6901FA03F3591E7B680B4050
:10063400134318462437BD4680BC704780B489B044
:1006440000AFF860B9607A603B60BB6803F00703F1
:10065400FB61FB69C3F10703042B28BF0423BB61BF
:10066400FB690433062B02D9FB69033B00E000233A
:100674007B61FA687B69DA400121BB6901FA03F303
:10068400013B1A407B681A6001227B6902FA03F37A
:100694005A1EFB681A403B681A6000BF2437BD46E7
:1006A40080BC704780B400AFBFF34F8F0549054B42
:1006B400DB6803F4E062044B1343CB60BFF34F8F5A
:1006C40000BFFDE700ED00E00400FA0580B582B04C
:1006D40000AF78607B68013BB3F1807F01D30123D5
:1006E4000FE00A4A7B68013B53600F214FF0FF3053
:1006F400FFF724FF054B00229A60044B07221A607F
:10070400002318460837BD4680BD00BF10E000E056
:1007140080B582B000AF78607868FFF743FE00BF11
:100724000837BD4680BD00BF80B586B000AF034624
:10073400B9607A60FB7300237B61FFF757FE786131
:100744007A68B9687869FFF749FF024697F90F306C
:1007540011461846FFF7F2FE00BF1837BD4680BDAC
:1007640080B582B000AF0346FB7197F90730184695
:10077400FFF74AFE00BF0837BD4680BD80B582B092
:1007840000AF0346FB7197F907301846FFF754FE94
:1007940000BF0837BD4680BD80B500AFFFF782FFBC
:1007A40000BF80BD80B582B000AF78607868FFF785
:1007B4008DFF034618460837BD4680BD80B500AF9F
:1007C400FFF714FE0346184680BD00BF80B584B011
:1007D40000AFB9607A603B600346FB7397F90F3052
:1007E4001846FFF7D5FE3B687A68B968FFF726FF1D
:1007F40000BF1037BD4680BD80B582B000AF034650
:10080400FB7197F907301846FFF74AFE00BF083717
:10081400BD4680BD80B582B000AF0346FB7197F939
:1008240007301846FFF722FE034618460837BD4630
:1008340080BD00BF80B582B000AF0346FB7197F95D
:1008440007301846FFF746FE00BF0837BD4680BD97
:1008540080B582B000AF0346FB7197F907301846A4
:10086400FFF752FE034618460837BD4680BD00BF59
:1008740080B483B000AF78607B68042B06D1094A4A
:10088400084B1B6843F00403136005E0054A054B5D
:100894001B6823F00403136000BF0C37BD4680BC03
:1008A400704700BF10E000E080B500AF00F002F830
:1008B40000BF80BD80B400AF00BFBD4680BC7047A0
:1008C40080B58AB000AF786039607B68002B01D1B5
:1008D400012386E07B6893F83930DBB2002B06D124
:1008E4007B68002283F83820786800F0AFF87B68D2
:1008F400022283F839207B681A687B68043319461E
:1009040010460DF0A7FE7B6818683B6819683B68C1
:100914009B6803220EF064F97B681B687A6812688E
:10092400926922F00C029A617B681B687A681268EB
:1009340091693A6852680A439A617B681B687A68CD
:100944001268526842F080025A607B681B687A68B9
:100954001268926822F070029A607B681B687A6859
:100964001268926842F040029A607B681B687A6859
:100974001268926822F007029A607B681B687A68A2
:100984001268926842F004029A600023FB6100231B
:100994003B627023FB6000237B620023BB61002366
:1009A4007B613B68DB683B617B681B6807F10C0279
:1009B400114618460DF03AFF7B681B687A68126886
:1009C400526822F070025A607B681B687A68126869
:1009D400526842F050025A607B68012283F8392041
:1009E400002318462837BD4680BD00BF80B582B0BD
:1009F40000AF78607B68022283F839207B681B682B
:100A04001A6A41F211131340002B0FD17B681B6843
:100A14001A6A40F244431340002B07D17B681B68D9
:100A24007A681268126822F001021A60786800F08D
:100A340017F87B68002283F839207B68002283F84A
:100A44003820002318460837BD4680BD80B483B0E3
:100A540000AF786000BF0C37BD4680BC704700BF54
:100A640080B483B000AF786000BF0C37BD4680BC53
:100A7400704700BF80B582B000AF78607B681B68A8
:100A84000122002118460EF07DFA7B681B687A6803
:100A94001268126842F001021A60002318460837EF
:100AA400BD4680BD80B582B000AF78607B681B68AE
:100AB4000022002118460EF065FA7B681B681A6A4A
:100AC40041F211131340002B0FD17B681B681A6A83
:100AD40040F244431340002B07D17B681B687A68BB
:100AE4001268126822F001021A60002318460837BF
:100AF400BD4680BD80B582B000AF78607B681B685E
:100B04007A681268D26842F00202DA607B681B6875
:100B14000122002118460EF035FA7B681B687A68BA
:100B24001268126842F001021A600023184608375E
:100B3400BD4680BD80B582B000AF78607B681B681D
:100B44000022002118460EF01DFA7B681B687A68A3
:100B54001268D26822F00202DA607B681B681A6AA3
:100B640041F211131340002B0FD17B681B681A6AE2
:100B740040F244431340002B07D17B681B687A681A
:100B84001268126822F001021A600023184608371E
:100B9400BD4680BD80B584B000AFF860B96013462F
:100BA400FB80FB6893F83930DBB2022B01D10223BE
:100BB4003BE0FB6893F83930DBB2012B0BD1BB6807
:100BC400002B04D1FB88002B01D001232DE0FB680E
:100BD400022283F83920FB681B6801220021184691
:100BE4000EF0D0F9FB681B6A124A9A62FB681B6A12
:100BF400114A1A63FB68186AFB681B683433194688
:100C0400BA68FB8803F0AEFDFB681B68FA681268DB
:100C1400D26842F40072DA60FB681B68FA681268F2
:100C2400126842F001021A60002318461037BD46CC
:100C340080BD00BFA1E500080DE5000880B582B0C5
:100C440000AF78607B681B680022002118460EF014
:100C540099F97B681B687A681268D26822F400727A
:100C6400DA607B681B681A6A41F211131340002B87
:100C74000FD17B681B681A6A40F244431340002B6F
:100C840007D17B681B687A681268126822F0010237
:100C94001A60002318460837BD4680BD80B582B06F
:100CA40000AF786039607B681B6804223968184695
:100CB40001F022F87B681B687A681268526C42F46F
:100CC40000425A647B681B687A681268126842F0B2
:100CD40001021A60002318460837BD4680BD00BFD4
:100CE40080B582B000AF786039607B681B680022F1
:100CF4003968184601F000F87B681B681A6A41F2EB
:100D040011131340002B0FD17B681B681A6A40F241
:100D140044431340002B07D17B681B687A68126830
:100D2400526C22F400425A647B681B681A6A41F2CE
:100D340011131340002B0FD17B681B681A6A40F211
:100D440044431340002B07D17B681B687A68126800
:100D5400126822F001021A60002318460837BD46C3
:100D640080BD00BF80B582B000AF786039603B6859
:100D74000C2B41D801A252F823F000BFB50D000896
:100D8400FD0D0008FD0D0008FD0D0008C70D00084D
:100D9400FD0D0008FD0D0008FD0D0008D90D00082B
:100DA400FD0D0008FD0D0008FD0D0008EB0D000809
:100DB4007B681B687A681268D26842F00202DA60C3
:100DC4001BE07B681B687A681268D26842F00402F0
:100DD400DA6012E07B681B687A681268D26842F0B5
:100DE4000802DA6009E07B681B687A681268D268D6
:100DF40042F01002DA6000E000BF7B681B687A688A
:100E04001268D26842F08002DA607B681B680422B0
:100E14003968184600F070FF7B681B687A681268AE
:100E2400526C42F400425A647B681B687A68126808
:100E3400126842F001021A60002318460837BD46C2
:100E440080BD00BF80B584B000AF786039600023F6
:100E5400FB603B680C2B41D801A252F823F000BF81
:100E6400990E0008E10E0008E10E0008E10E0008EA
:100E7400AB0E0008E10E0008E10E0008E10E0008C8
:100E8400BD0E0008E10E0008E10E0008E10E0008A6
:100E9400CF0E00087B681B687A681268D26822F05B
:100EA4000202DA601BE07B681B687A681268D26809
:100EB40022F00402DA6012E07B681B687A68126828
:100EC400D26822F00802DA6009E07B681B687A685D
:100ED4001268D26822F01002DA6000E000BF7B687A
:100EE4001B6800223968184600F006FF7B681B68FF
:100EF4001B6AFB60FA6840F244431340002B07D19D
:100F04007B681B687A681268D26822F08002DA6013
:100F14007B681B681A6A41F211131340002B0FD12E
:100F24007B681B681A6A40F244431340002B07D1C4
:100F34007B681B687A681268526C22F400425A6417
:100F44007B681B681A6A41F211131340002B0FD1FE
:100F54007B681B681A6A40F244431340002B07D194
:100F64007B681B687A681268126822F001021A60B2
:100F7400002318461037BD4680BD00BF80B584B03D
:100F840000AFF860B9607A607B80FB6893F8393011
:100F9400DBB2022B01D10223B7E0FB6893F83930AE
:100FA400DBB2012B0BD17B68002B04D17B88002B97
:100FB40001D00123A9E0FB68022283F83920BB6831
:100FC4000C2B00F2898001A252F823F005100008CE
:100FD400DD100008DD100008DD1000083B100008DB
:100FE400DD100008DD100008DD1000087110000895
:100FF400DD100008DD100008DD100008A71000084F
:10100400FB681B6A434A9A62FB681B6A424A1A637A
:10101400FB68186A7968FB681B6834331A467B8856
:1010240003F0A0FBFB681B68FA681268D26842F4FC
:101034000072DA6051E0FB685B6A364A9A62FB68C8
:101044005B6A354A1A63FB68586A7968FB681B68EF
:1010540038331A467B8803F085FBFB681B68FA6803
:101064001268D26842F48062DA6036E0FB689B6AF8
:10107400284A9A62FB689B6A274A1A63FB68986A43
:101084007968FB681B683C331A467B8803F06AFB6B
:10109400FB681B68FA681268D26842F40062DA607E
:1010A4001BE0FB68DB6A1B4A9A62FB68DB6A1A4A2C
:1010B4001A63FB68D86A7968FB681B6840331A4670
:1010C4007B8803F04FFBFB681B68FA681268D268E0
:1010D40042F48052DA6000E000BFFB681B6804221F
:1010E400B968184600F008FEFB681B68FA681268C5
:1010F400526C42F400425A64FB681B68FA68126836
:10110400126842F001021A60002318461037BD46E7
:1011140080BD00BF31E500080DE5000880B582B050
:1011240000AF786039603B680C2B41D801A252F8BB
:1011340023F000BF6D110008B5110008B5110008B7
:10114400B51100087F110008B5110008B511000899
:10115400B511000891110008B5110008B511000877
:10116400B5110008A31100087B681B687A6812682F
:10117400D26822F40072DA601BE07B681B687A682C
:101184001268D26822F48062DA6012E07B681B681D
:101194007A681268D26822F40062DA6009E07B6837
:1011A4001B687A681268D26822F48052DA6000E020
:1011B40000BF7B681B6800223968184600F09CFD5C
:1011C4007B681B681A6A41F211131340002B0FD17C
:1011D4007B681B681A6A40F244431340002B07D112
:1011E4007B681B687A681268526C22F400425A6465
:1011F4007B681B681A6A41F211131340002B0FD14C
:101204007B681B681A6A40F244431340002B07D1E1
:101214007B681B687A681268126822F001021A60FF
:101224007B68012283F83920002318460837BD461D
:1012340080BD00BF80B582B000AF786039607B6844
:101244001B6804223968184600F056FD7B681B6849
:101254007A681268526C42F400425A647B681B68D4
:101264007A681268126842F001021A600023184674
:101274000837BD4680BD00BF80B582B000AF78603E
:1012840039607B681B6800223968184600F034FD19
:101294007B681B681A6A41F211131340002B0FD1AB
:1012A4007B681B681A6A40F244431340002B07D141
:1012B4007B681B687A681268526C22F400425A6494
:1012C4007B681B681A6A41F211131340002B0FD17B
:1012D4007B681B681A6A40F244431340002B07D111
:1012E4007B681B687A681268126822F001021A602F
:1012F400002318460837BD4680BD00BF80B582B0C4
:1013040000AF786039603B680C2B41D801A252F8D9
:1013140023F000BF4D13000895130008951300082F
:10132400951300085F13000895130008951300082F
:10133400951300087113000895130008951300080D
:1013440095130008831300087B681B687A68126889
:10135400D26842F00202DA601BE07B681B687A689C
:101364001268D26842F00402DA6012E07B681B68FB
:101374007A681268D26842F00802DA6009E07B6891
:101384001B687A681268D26842F01002DA6000E0E2
:1013940000BF7B681B687A681268D26842F08002DA
:1013A400DA607B681B6804223968184600F0A4FCE4
:1013B4007B681B687A681268526C42F400425A6473
:1013C4007B681B687A681268126842F001021A602E
:1013D400002318460837BD4680BD00BF80B584B0E1
:1013E40000AF786039600023FB603B680C2B41D868
:1013F40001A252F823F000BF311400087914000848
:1014040079140008791400084314000879140008BA
:101414007914000879140008551400087914000898
:101424007914000879140008671400087B681B68A5
:101434007A681268D26822F00202DA601BE07B68E4
:101444001B687A681268D26822F00402DA6012E03B
:101454007B681B687A681268D26822F00802DA6036
:1014640009E07B681B687A681268D26822F010026F
:10147400DA6000E000BF7B681B6800223968184608
:1014840000F03AFC7B681B681B6AFB60FA6840F258
:1014940044431340002B07D17B681B687A681268A9
:1014A400D26822F08002DA607B681B681A6A41F213
:1014B40011131340002B0FD17B681B681A6A40F28A
:1014C40044431340002B07D17B681B687A68126879
:1014D400526C22F400425A647B681B681A6A41F217
:1014E40011131340002B0FD17B681B681A6A40F25A
:1014F40044431340002B07D17B681B687A68126849
:10150400126822F001021A60002318461037BD4603
:1015140080BD00BF80B584B000AFF860B9607A6068
:101524007B80FB6893F83930DBB2022B01D10223B4
:10153400B7E0FB6893F83930DBB2012B0BD17B6841
:10154400002B04D17B88002B01D00123A9E0FB6888
:10155400022283F83920BB680C2B00F2898001A297
:1015640052F823F09D15000875160008751600083A
:1015740075160008D31500087516000875160008BE
:101584007516000809160008751600087516000877
:10159400751600083F160008FB681B6A434A9A62E6
:1015A400FB681B6A424A1A63FB68186A7968FB681D
:1015B4001B6834331A467B8803F0D4F8FB681B6835
:1015C400FA681268D26842F40072DA6051E0FB688B
:1015D4005B6A364A9A62FB685B6A354A1A63FB683F
:1015E400586A7968FB681B6838331A467B8803F0AD
:1015F400B9F8FB681B68FA681268D26842F4806222
:10160400DA6036E0FB689B6A284A9A62FB689B6A48
:10161400274A1A63FB68986A7968FB681B683C333D
:101624001A467B8803F09EF8FB681B68FA68126808
:10163400D26842F40062DA601BE0FB68DB6A1B4A92
:101644009A62FB68DB6A1A4A1A63FB68D86A79688B
:10165400FB681B6840331A467B8803F083F8FB68F9
:101664001B68FA681268D26842F48052DA6000E0BB
:1016740000BFFB681B680422B968184600F03CFBF5
:10168400FB681B68FA681268526C42F400425A64A0
:10169400FB681B68FA681268126842F001021A605B
:1016A400002318461037BD4680BD00BF31E5000851
:1016B4000DE5000880B582B000AF786039603B6802
:1016C4000C2B41D801A252F823F000BF05170008E3
:1016D4004D1700084D1700084D170008171700088C
:1016E4004D1700084D1700084D170008291700086A
:1016F4004D1700084D1700084D1700083B17000848
:101704007B681B687A681268D26822F40072DA6017
:101714001BE07B681B687A681268D26822F48062D6
:10172400DA6012E07B681B687A681268D26822F477
:101734000062DA6009E07B681B687A681268D26824
:1017440022F48052DA6000E000BF7B681B6800224C
:101754003968184600F0D0FA7B681B681A6A41F2AF
:1017640011131340002B0FD17B681B681A6A40F2D7
:1017740044431340002B07D17B681B687A681268C6
:10178400526C22F400425A647B681B681A6A41F264
:1017940011131340002B0FD17B681B681A6A40F2A7
:1017A40044431340002B07D17B681B687A68126896
:1017B400126822F001021A607B68012283F8392042
:1017C400002318460837BD4680BD00BF80B582B0EF
:1017D40000AF786039607B681B680422396818465A
:1017E40000F08AFA7B681B687A681268526C42F4CB
:1017F40000425A64002318460837BD4680BD00BF26
:1018040080B582B000AF786039607B681B680022C5
:101814003968184600F070FA7B681B681A6A41F24E
:1018240011131340002B0FD17B681B681A6A40F216
:1018340044431340002B07D17B681B687A68126805
:10184400526C22F400425A647B681B681A6A41F2A3
:1018540011131340002B0FD17B681B681A6A40F2E6
:1018640044431340002B07D17B681B687A681268D5
:10187400126822F001021A60002318460837BD4698
:1018840080BD00BF80B582B000AF786039607B68EE
:101894001B687A681268D26842F00202DA607B68D8
:1018A4001B687A681268D26842F00402DA607B68C6
:1018B4001B6804223968184600F01EFA7B681B680E
:1018C4007A681268526C42F400425A640023184643
:1018D4000837BD4680BD00BF80B582B000AF7860D8
:1018E40039607B681B687A681268D26822F0020249
:1018F400DA607B681B687A681268D26822F0040296
:10190400DA607B681B6800223968184600F0F4F935
:101914007B681B681A6A41F211131340002B0FD124
:101924007B681B681A6A40F244431340002B07D1BA
:101934007B681B687A681268526C22F400425A640D
:101944007B681B681A6A41F211131340002B0FD1F4
:101954007B681B681A6A40F244431340002B07D18A
:101964007B681B687A681268126822F001021A60A8
:10197400002318460837BD4680BD00BF80B485B03B
:1019840000AFF860B9607A60FB6893F83830012BD7
:1019940001D102233CE0FB68012283F83820BB68B4
:1019A400002B08D0BB68102B05D0BB68202B02D0BD
:1019B400BB68302B0FD1FB681B68FA681268926809
:1019C40022F070029A60FB681B68FA6812689168DA
:1019D400BA680A439A60FB681B68FA68126852681E
:1019E40042F001025A60FB681B68FA681268526888
:1019F40022F004025A60FB681B68FA681268516896
:101A04007A680A435A60FB68002283F8382000236E
:101A140018461437BD4680BC704700BF80B485B0FB
:101A240000AFF860B9607A60FB6893F83830012B36
:101A340001D1022344E0FB68012283F83820BB680B
:101A4400002B08D0BB68102B05D0BB68202B02D01C
:101A5400BB68302B0FD1FB681B68FA681268926868
:101A640022F070029A60FB681B68FA681268916839
:101A7400BA680A439A60FB681B68FA68126852687D
:101A840042F001025A60FB681B68FA6812685268E7
:101A940022F004025A60FB681B68FA6812685168F5
:101AA4007A680A435A60FB681B68FA681268D2684D
:101AB40042F02002DA60FB68002283F83820002319
:101AC40018461437BD4680BC704700BF80B485B04B
:101AD40000AFF860B9607A60FB6893F83830012B86
:101AE40001D102234CE0FB68012283F83820BB6853
:101AF400002B08D0BB68102B05D0BB68202B02D06C
:101B0400BB68302B0FD1FB681B68FA6812689268B7
:101B140022F070029A60FB681B68FA681268916888
:101B2400BA680A439A60FB681B68FA6812685268CC
:101B340042F001025A60FB681B68FA681268526836
:101B440022F004025A60FB681B68FA681268516844
:101B54007A680A435A60FB681B6B0C4A9A62FB68FA
:101B64001B6B0B4A1A63FB681B68FA681268D2681D
:101B740042F40052DA60FB68002283F83820002324
:101B840018461437BD4680BC704700BFBD1C000812
:101B94000DE5000880B483B000AF786039607B68DD
:101BA40093F83830012B01D1022327E07B6801220E
:101BB40083F838207B68022283F839207B681B680D
:101BC4003A6811683A68526811433A689268114356
:101BD4003A68D26811433A68126911433A68526903
:101BE40011433A6892690A435A647B68012283F874
:101BF40039207B68002283F83820002318460C37EC
:101C0400BD4680BC704700BF80B483B000AF78602D
:101C140039607B6893F83830012B01D1022332E01C
:101C24007B68012283F838207B68022283F83920FC
:101C34007B681B687A681268526822F070025A60E6
:101C44007B681B687A68126851683A6812680A43AC
:101C54005A607B681B687A681268926822F0800276
:101C64009A607B681B687A68126891683A6852685F
:101C74000A439A607B68012283F839207B6800223A
:101C840083F83820002318460C37BD4680BC7047C3
:101C940080B483B000AF786000BF0C37BD4680BC11
:101CA400704700BF80B483B000AF786000BF0C37CA
:101CB400BD4680BC704700BF80B584B000AF78607B
:101CC4007B685B6AFB60FB68012283F83920F86853
:101CD400FFF7DEFF00BF1037BD4680BD80B483B080
:101CE40000AF78607B6893F83930DBB218460C3764
:101CF400BD4680BC704700BF80B487B000AFF860B9
:101D0400B9607A6000237B610422BB6802FA03F3A2
:101D14007B61FB681A6A7B69DB431A40FB681A62C1
:101D2400FB681A6A7968BB6801FA03F31A43FB6813
:101D34001A6200BF1C37BD4680BC704780B590B0A6
:101D440000AF78600023FB630023BB637B681B68E0
:101D540003F00103002B00F0BD80704A6F4BDB6978
:101D640043F08053D3616D4BDB6903F08053FB6018
:101D7400FB686B4A6A4B1B6843F48073136000F082
:101D840087FAF86308E000F083FA0246FB6BD31A83
:101D9400642B01D90323BCE0614B1B6803F48073FB
:101DA400002BF0D05D4B1B6A03F44073BB63BB6B29
:101DB400002B00F086807B685B6803F44072BB6B89
:101DC4009A427ED0554B1B6A23F44073BB634FF495
:101DD40080333B633B6B93FAA3F3FB61FB69B3FA78
:101DE40083F39B001A464F4B13441A460123136096
:101DF4004FF480337B627B6A93FAA3F33B623B6AC2
:101E0400B3FA83F39B001A46464B13441A46002345
:101E14001360424ABB6B1362BB6B03F00103002BDC
:101E24004FD000F035FAF8630AE000F031FA0246C8
:101E3400FB6BD31A41F28832934201D9032368E041
:101E440002237B637B6B93FAA3F3BB61BB69B3FA95
:101E540083F35BB243F040035BB2DBB25B09DBB2FA
:101E6400012B02D12D4B1B6816E00223FB62FB6A97
:101E740093FAA3F37B617B69B3FA83F35BB243F018
:101E840040035BB2DBB25B09DBB2022B02D1234B12
:101E94001B6A01E0214B5B6A0222BA62BA6A92FAB7
:101EA400A2F23A613A69B2FA82F252B242F04002C4
:101EB40052B2D2B202F01F02D34003F00103002B4E
:101EC400B3D01649154B1B6A23F440727B685B68D8
:101ED40013430B627B681B6803F00203002B08D0DA
:101EE4000E490E4B5B6823F440427B689B681343A6
:101EF4004B607B681B6803F01003002B08D0074974
:101F0400064B5B6823F480027B685B6913434B6078
:101F1400002318464037BD4680BD00BF0010024074
:101F2400007000400004424280B485B000AF786085
:101F34000023FB607B6801221A601B4B1B6A03F4BD
:101F44004073FB607B68FA685A607B681B6843F0E7
:101F540002027B681A60144B5B6803F440427B689E
:101F64009A607B681B6843F004027B681A607B6894
:101F74000022DA607B681B6843F008027B681A6001
:101F84007B6800221A617B681B6843F010027B683F
:101F94001A60054B5B6803F480027B685A6100BFDA
:101FA4001437BD4680BC70470010024090B593B012
:101FB40000AF78607E4B07F10C04186859689A6882
:101FC400DB680FC47B4A07F1080312881A800023D8
:101FD400FB6300237B640023BB6300233B64002377
:101FE4007B637B68013B0F2B00F2D98001A252F87E
:101FF40023F000BF0521000871210008A321000877
:10200400F5200008A3210008A3210008A32100084B
:10201400FD200008A3210008A3210008A321000833
:10202400A3210008A3210008A3210008A32100087C
:1020340039200008604B5B68FB635F4B1B6803F04F
:102044008073002B00F0AD80FB6B03F470124FF42F
:102054007013BB62BB6A93FAA3F37B627B6AB3FA25
:1020640083F322FA03F307F14802134413F83C3CC8
:102074007B63FB6B03F48033002B23D04E4B5B68F4
:1020840003F400324FF400333B633B6B93FAA3F346
:102094003B623B6AB3FA83F322FA03F307F1480283
:1020A400134413F8403CBB63FB6B03F48033002BF5
:1020B4000DD0424ABB6BB2FBF3F37A6B02FB03F322
:1020C4003B6404E07B6B3E4A02FB03F33B643A4B04
:1020D4005B6803F48003002B02D03B6C7B6460E0FC
:1020E4003B6C5B00374AA2FB03235B087B6458E02C
:1020F4000EF0C6FE786455E00EF0C2FE786451E03E
:102104002D4B1B6AFB63FB6B03F44073B3F5807FB9
:1021140008D1FB6B03F00203002B03D04FF4004300
:102124007B6422E0FB6B03F44073B3F5007F09D1B9
:10213400214B5B6A03F00203002B03D049F64043B2
:102144007B6412E0FB6B03F44073B3F5407F09D169
:10215400194B1B6803F40033002B03D04FF22443C4
:102164007B6402E000237B641CE01BE00EF02EFF86
:102174000146114B5B6803F440424FF48043FB6219
:10218400FB6A93FAA3F3FB61FB69B3FA83F322FAC4
:1021940003F301335B00B1FBF3F37B6402E000BFA4
:1021A40000E000BF7B6C18464C37BD4690BD00BFB5
:1021B400F4130108041401080010024000127A000C
:1021C40000093D00ABAAAAAA80B500AF084A084B93
:1021D4001B6843F0100313600320FEF799FA0020F4
:1021E40000F02CF808F0AEF90023184680BD00BFBB
:1021F4000020024080B500AF094B4FF0FF32DA6097
:10220400074B00221A61064B4FF0FF32DA60044B91
:102214000022DA6000F00CF80023184680BD00BFED
:102224000010024080B400AF00BFBD4680BC7047C0
:1022340080B400AF00BFBD4680BC704780B582B09B
:1022440000AF78600EF096FE0246094BA3FB022312
:102254009B091846FEF7A6FA002279684FF0FF3072
:10226400FEF762FA002318460837BD4680BD00BF5A
:10227400D34D621080B400AF044B1B680133034A92
:10228400136000BFBD4680BC704700BF50060020ED
:1022940080B400AF024B1B681846BD4680BC704733
:1022A4005006002080B584B000AF78600023FB6046
:1022B400FFF7EEFFF86000BFFFF7EAFF0246FB6896
:1022C400D21A7B689A42F7D300BF1037BD4680BD4F
:1022D40080B400AF044A044B1B6823F0020313606C
:1022E40000BFBD4680BC704710E000E080B400AF82
:1022F400044A044B1B6843F00203136000BFBD464D
:1023040080BC704710E000E080B400AF024B184678
:10231400BD4680BC704700BF0004000180B483B098
:1023240000AF094B1A68094B7B607B6893FAA3F3EF
:102334003B603B68B3FA83F322FA03F318460C3785
:10234400BD4680BC704700BF002004E00000FFFFD2
:1023540080B400AF034B1B68C3F30B031846BD46A0
:1023640080BC7047002004E080B400AF044A044BF2
:102374005B6843F00103536000BFBD4680BC7047F7
:10238400002004E080B400AF044A044B5B6823F0EF
:102394000103536000BFBD4680BC7047002004E0C9
:1023A40080B400AF044A044B5B6843F002035360FB
:1023B40000BFBD4680BC7047002004E080B400AF7D
:1023C400044A044B5B6823F00203536000BFBD461C
:1023D40080BC7047002004E080B400AF044A044B82
:1023E4005B6843F00403536000BFBD4680BC704784
:1023F400002004E080B400AF044A044B5B6823F07F
:102404000403536000BFBD4680BC7047002004E055
:1024140080B400AF154A154B1B6843F001031360E9
:102424001249124B5A68124B13404B600F4A0F4B20
:102434001B6823F0847323F4803313600B4A0B4B23
:102444001B6823F480231360084A084B5B6823F459
:10245400FE035360054B4FF41F029A60054B4FF087
:1024640000629A6000BFBD4680BC70470010024005
:102474000000FFF800ED00E080B485B000AF002359
:10248400FB600023BB6000237B602C4B5B6803F084
:102494000C03FB60FB68042B07D0082B09D0002B2E
:1024A40033D1274B274A1A6033E0254B254A1A605B
:1024B4002FE0224B5B6803F47013BB601F4B5B6817
:1024C40003F480337B60BB689B0C0233BB607B6886
:1024D400002B06D1BB681C4A02FB03F3184A1360A5
:1024E40017E0164B5B6803F40033002B06D0BB687F
:1024F400154A02FB03F3124A13600AE0BB68114A4F
:1025040002FB03F30E4A136003E00D4B0D4A1A60FD
:1025140000BF0A4B5B6803F0F0031B090B4AD35C52
:10252400FB60074B1A68FB6822FA03F3044A136042
:1025340000BF1437BD4680BC704700BF0010024086
:102544000000002000127A0000093D000814010870
:1025540080B483B000AF0346FB71002318460C37E8
:10256400BD4680BC704700BF80B485B000AF034651
:10257400B9607A60FB73BB684FF480321A607B6881
:102584004FF400721A80002318461437BD4680BCED
:10259400704700BF80B483B000AF0346FB710023D3
:1025A40018460C37BD4680BC704700BF80B483B06A
:1025B40000AF0346FB71002318460C37BD4680BCB0
:1025C400704700BF80B485B000AFB9607A601A4626
:1025D4000346FB731346BB81002318461437BD46DC
:1025E40080BC704780B485B000AFB9607A601A4689
:1025F4000346FB731346BB81002318461437BD46BC
:1026040080BC704780B400AF00231846BD4680BC30
:10261400704700BF80B582B000AFFFF7D5FD00F072
:102624005BF800F005F900F0B9F800F0D3F805F014
:102634006BFE00F069F9264808F062FE01222021B1
:10264400244803F06FFE00224021224803F06AFE72
:102654003221012004F068F80CF080FD0CF00AFD32
:102664000CF04CFD03F0F4FF3B461846FDF766FE04
:1026740097F900300133062B22D801A252F823F037
:10268400C5260008C5260008C5260008A12600089E
:10269400C5260008AD260008B92600087B6819463F
:1026A400012004F041F80CE000224021094803F025
:1026B40039FE06E001224021064803F033FE00E023
:1026C40000BF97F90030B3F1FF3FCDD1CAE700BF97
:1026D400440700200018014080B596B000AF0523E0
:1026E4003B634FF480337B630023BB630123FB63B1
:1026F40001233B640223FB644FF480333B654FF4B6
:1027040080137B6507F1300318460DF071FA034618
:10271400002B01D000F054F90F23FB6102233B622C
:1027240000237B624FF48063BB620023FB6207F1EA
:102734001C03012118460EF07BF90346002B01D03F
:1027440000F03EF911237B604FF48073BB604FF4BB
:102754008003BB613B1D1846FFF7F0FA0346002BCC
:1027640001D000F02DF90EF057FB0EF003FC0246E9
:10277400094BA3FB02239B091846FEF713F8042018
:10278400FEF776F8002200214FF0FF30FDF7CCFF72
:1027940000BF5837BD4680BDD34D621080B500AF31
:1027A4000A4B0B4A1A60094B4FF0FF325A60074B31
:1027B4004FF480729A60054800F0C2FB0346002B78
:1027C40001D000F0FDF800BF80BD00BF300700203D
:1027D4000028004080B582B000AF134B134A1A6042
:1027E400114B00225A60104B00229A600E4B4BF69C
:1027F4008032DA600C4808F0CFFC0346002B01D08D
:1028040000F0DEF810233B6000237B603B46194652
:102814000548FFF7F9F90346002B01D000F0D0F882
:1028240000BF0837BD4680BD4407002000100040AB
:1028340080B588B000AF314A304B9B6943F0400308
:1028440093612E4B9B6903F04003FB60FB682B4AAA
:102854002A4B9B6943F010039361284B9B6903F057
:102864001003BB60BB68254A244B9B6943F02003DB
:102874009361224B9B6903F020037B607B681F4AB2
:102884001E4B9B6943F0040393611C4B9B6903F04B
:1028940004033B603B6800226021194803F042FDB9
:1028A40000220221174803F03DFD60233B61012310
:1028B4007B610223FB6107F110031946104803F002
:1028C400D9FA01233B6100237B610023BB6107F13B
:1028D400100319460B4803F0CDFA02233B61012390
:1028E4007B610223FB6107F110031946054803F0DD
:1028F400C1FA00BF2037BD4680BD00BF00100240B2
:10290400001801400010014080B588B000AF294B89
:102914004FF020421A60274B274A5A60254B002269
:102924009A60244B0022DA60224B00221A61214B68
:1029340010225A611F4B00229A611E4B0022DA6159
:102944001C4B00221A621B4B00225A62194B4FF493
:1029540080529A62174B0022DA62164B00221A63E5
:10296400144B00225A63134B00229A6301237B60A9
:102974000F23BB600523FB6000233B6110237B61B5
:102984001123BB610023FB613B1D0022194609484A
:1029940000F01AF80346002B01D000F011F8074AA2
:1029A400064BDB6943F48063D36100BF2037BD4627
:1029B40080BD00BFEC060020040100A0000001401F
:1029C40080B400AFFEE700BF80B584B000AFF8600C
:1029D400B9607A60FB68002B01D1012334E0FB6805
:1029E40093F83D30DBB2002B06D1FB68002283F85C
:1029F4003C20F86807F0C6FEFB681A68FB680833D9
:102A04001946104607F0F6FEFB681868FB689B68D9
:102A14001A46B96807F0A2FFFB685868FB689A6811
:102A2400FB681B6B796808F003F8FB681B68FA689D
:102A34009268F9680968F868806851F8201041F0D4
:102A4400010143F82210002318461037BD4680BD0B
:102A540080B582B000AF7860786807F0C1FE7B680B
:102A640018687B6859687B689B681A4607F042FFC0
:102A74007B68002283F83D207B68002283F83C2099
:102A8400002318460837BD4680BD00BF80B483B01C
:102A940000AF786000BF0C37BD4680BC704700BFF4
:102AA40080B483B000AF786000BF0C37BD4680BCF3
:102AB400704700BF80B483B000AF786000BF0C37AC
:102AC400BD4680BC704700BF80B483B000AF78605F
:102AD40000BF0C37BD4680BC704700BF80B487B0D0
:102AE40000AFF860B9607A603B60BB687B61FB68EB
:102AF40093F83C30012B01D1022322E0FB68012230
:102B040083F83C20FB68022283F83D200DE07B69BA
:102B14001B78DAB27B681A707B6801337B607B694F
:102B240001337B613B68013B3B603B68002BEED18A
:102B3400FB68012283F83D20FB68002283F83C20D7
:102B4400002318461C37BD4680BC704780B487B04C
:102B540000AFF860B9607A603B60BB687B61FB687A
:102B640093F83D30DBB2042B01D1012328E0FB684C
:102B740093F83C30012B01D1022321E0FB680122B0
:102B840083F83C20FB68022283F83D200CE07B683C
:102B94001A787B691A707B6801337B607B69013327
:102BA4007B613B68013B3B603B68002BEFD1FB68DA
:102BB400012283F83D20FB68002283F83C20002397
:102BC40018461C37BD4680BC704700BF80B487B030
:102BD40000AFF860B9607A603B60BB687B61FB68FA
:102BE40093F83C30012B01D1022322E0FB6801223F
:102BF40083F83C20FB68022283F83D200DE07B69CA
:102C04001B889AB27B681A807B6802337B607B697D
:102C140002337B613B68013B3B603B68002BEED198
:102C2400FB68012283F83D20FB68002283F83C20E6
:102C3400002318461C37BD4680BC704780B487B05B
:102C440000AFF860B9607A603B60BB687B61FB6889
:102C540093F83D30DBB2042B01D1012328E0FB685B
:102C640093F83C30012B01D1022321E0FB680122BF
:102C740083F83C20FB68022283F83D200CE07B684B
:102C84001A887B691A807B6802337B607B69023314
:102C94007B613B68013B3B603B68002BEFD1FB68E9
:102CA400012283F83D20FB68002283F83C200023A6
:102CB40018461C37BD4680BC704700BF80B485B041
:102CC40000AFF860B9607A603B60FB6893F83C3011
:102CD400012B01D1022321E0FB68012283F83C206F
:102CE400FB68022283F83D200CE0BB681A687B680D
:102CF4001A607B6804337B60BB680433BB603B6849
:102D0400013B3B603B68002BEFD1FB68012283F859
:102D14003D20FB68002283F83C200023184614372A
:102D2400BD4680BC704700BF80B485B000AFF8607A
:102D3400B9607A603B60FB6893F83D30DBB2042BEA
:102D440001D1012328E0FB6893F83C30012B01D129
:102D5400022321E0FB68012283F83C20FB68022265
:102D640083F83D200CE07B681A68BB681A607B68B6
:102D740004337B60BB680433BB603B68013B3B604E
:102D84003B68002BEFD1FB68012283F83D20FB68F0
:102D9400002283F83C20002318461437BD4680BC2B
:102DA400704700BF80B584B000AFF860B9607A6046
:102DB4003B60FB6893F83C30012B01D102231FE0F8
:102DC400FB68012283F83C20FB68022283F83D2043
:102DD400FB681B6C0C4A9A62FB681B6C0B4A1A63F7
:102DE400FB68186CB9687A683B6801F0BBFCFB6847
:102DF400012283F83D20FB68002283F83C20002355
:102E040018461037BD4680BDB92A0008CD2A0008EF
:102E140080B584B000AFF860B9607A603B60FB684D
:102E240093F83D30DBB2042B01D1012326E0FB688B
:102E340093F83C30012B01D102231FE0FB680122EF
:102E440083F83C20FB68022283F83D20FB681B6C5E
:102E54000C4A9A62FB681B6C0B4A1A63FB68186C79
:102E64007968BA683B6801F07DFCFB68012283F84D
:102E74003D20FB68002283F83C20002318461037CD
:102E8400BD4680BDB92A0008CD2A000880B582B0AD
:102E940000AF78607B6893F83C30012B01D10223AA
:102EA40014E07B68012283F83C207B681A687B6805
:102EB4009B681946104607F013FE7B68012283F8CD
:102EC4003D207B68002283F83C2000231846083705
:102ED400BD4680BD80B582B000AF78607B6893F852
:102EE4003C30012B01D1022318E07B68012283F8D6
:102EF4003C207B68022283F83D207B681A687B684B
:102F04009B681946104607F001FE7B68042283F88B
:102F14003D207B68002283F83C20002318460837B4
:102F2400BD4680BD80B483B000AF78607B6893F801
:102F34003D30DBB218460C37BD4680BC704700BF3D
:102F440080B584B000AF78600023FB607B68002B01
:102F540001D1012384E07B685B7CDBB2002B05D1CB
:102F64007B6800221A74786807F038FB7B680222B9
:102F74005A74786800F0F6FD0346002B04D07B6891
:102F840004225A7401236BE0786800F0B3FE034610
:102F9400002B04D07B6804225A74012360E07B6810
:102FA4001B687A681268526822F007025A607B68CC
:102FB4009B68002B05D02C4A2B4B1B6B23F0010381
:102FC40013632949284BDB6A23F460727B689B688E
:102FD4001343CB627B685B68B3F1FF3F03D07B682C
:102FE4005B68FB600EE00120FEF7E0FFF860FB6821
:102FF400002B04D17B6804225A74012330E0FB685F
:10300400013BFB607B681B687A681268926822F057
:103014000F01FA68120C0A439A607B681A687B688D
:103024001B68DB681B0C1B04F96889B20B43D36073
:10303400786800F087FE0346002B04D07B680422E6
:103044005A7401230CE07B680022DA737B68012246
:103054005A737B6801229A737B6801225A74002395
:1030640018461037BD4680BD006C004080B582B064
:1030740000AF78607B68002B01D101234CE07B68B2
:1030840002225A74786800F035FE0346002B07D0FC
:103094007B6804225A747B6800221A7401233BE083
:1030A4007B681B680022DA617B681B6800229A61D6
:1030B4007B681B684FF40042DA607B681B6800225F
:1030C4009A607B681B6800221A607B681B68002278
:1030D4005A60786800F036FE0346002B07D07B6800
:1030E40004225A747B6800221A74012314E078685D
:1030F40000F038FD7B681B687A681268526822F019
:1031040008025A60786807F09BFA7B6800225A74B8
:103114007B6800221A74002318460837BD4680BD18
:1031240080B483B000AF786000BF0C37BD4680BC6C
:10313400704700BF80B483B000AF786000BF0C3725
:10314400BD4680BC704700BF90B587B000AFF86043
:10315400B9607A6000237B6100233B61FB68002B2C
:1031640002D0BB68002B01D1012380E0FB681B7CEB
:10317400012B01D102237AE0FB6801221A74FB6857
:1031840002225A747B68002B13D1BB681B781A4641
:103194004FF4616303FB02F2BB685B7819460B468C
:1031A4001B015B1A9B001344BA68927813447B6139
:1031B4001EE0BB681B78184600F00AFE03461A4658
:1031C4004FF4616303FB02F4BB685B78184600F0BC
:1031D400FFFD03461A4613461B019B1A9B001C4421
:1031E400BB689B78184600F0F3FD034623447B61DB
:1031F4007969F86800F014FD0346002B07D0FB68DA
:1032040004225A74FB6800221A7401232FE0FB681D
:103214001B68FA681268526822F005025A60F8685E
:1032240000F026FD38613B69B3F1FF3F18D03A69DD
:103234007B699A4214D23B6903F5A83303F5C07342
:103244003B613969F86800F02DFD0346002B07D077
:10325400FB6804225A74FB6800221A74012306E0F6
:10326400FB6801225A74FB6800221A740023184672
:103274001C37BD4690BD00BF80B588B000AFF86074
:10328400B9607A600023BB610023FB6100237B618A
:1032940000233B61FB68002B02D0BB68002B01D1EB
:1032A4000123B5E0FB681B685B6803F00403002B93
:1032B40001D00123ACE0F86800F082FCB861BB697E
:1032C400554AA2FB0323DB0A3B61BA69524BA3FBB9
:1032D4000213DB0A4FF4616101FB03F3D31A4F4A73
:1032E400A2FB03235B09DAB2BB685A70BB694A4A82
:1032F400A2FB0312D20A4FF4616101FB02F29A1A93
:10330400464BA3FB021359090B461B015B1A9B0096
:10331400D11ACAB2BB689A703B69172B55D93B695D
:103324003F4AA2FB03231B097B6139693C4BA3FB86
:1033340001231A0913465B001344DB00CA1AD2B2F4
:10334400BB681A70F86800F093FCF861FB69B3F18C
:10335400FF3F08D0FA69BB699A4204D9FA69BB698C
:10336400D31AFB6102E04FF0FF33FB617B692D4A06
:1033740002FB03F3BA69D31ABB61B969F86800F0B8
:103384004FFC0346002B01D0012341E0FB69B3F15C
:10339400FF3F0CD0FA69BB691344FB61F969F86813
:1033A40000F080FC0346002B0AD0012330E0F969C9
:1033B400F86800F077FC0346002B01D0012327E0D6
:1033C4007969F86800F022FD03E03B69DAB2BB6872
:1033D4001A707B68002B1AD0BB681B78184600F063
:1033E400D9FC03461A46BB681A70BB685B7818465A
:1033F40000F0D0FC03461A46BB685A70BB689B7841
:10340400184600F0C7FC03461A46BB689A700023AE
:1034140018462037BD4680BDC5B3A29189888888E7
:10342400ABAAAAAA8051010080B588B000AFF860A9
:10343400B9607A600023FB610023BB6100237B61D8
:10344400FB68002B02D0BB68002B01D1012397E05D
:10345400FB681B7C012B01D1022391E0FB68012254
:103464001A74FB6802225A747B68002B0CD1BB6867
:10347400DA78FB68DA73BB685A78FB685A73BB68FE
:103484009A78FB689A731AE0BB68DB78184600F0F8
:103494009FFC03461A46FB68DA73BB685B781846E0
:1034A40000F096FC03461A46FB685A73BB689B7887
:1034B400184600F08DFC03461A46FB689A73FB68B5
:1034C400DB7B1846FB68597BFB689B7B1A4600F044
:1034D40079FD03461A46FB681A73FB681A7BBB68BE
:1034E4001A70F86800F06CFBF861FB69264AA2FBCD
:1034F4000323DB0A7B617B69182B3AD97B69234A56
:10350400A2FB03231B09224A02FB03F3FA69D31A21
:10351400FB61F969F86800F083FB0346002B07D0D0
:10352400FB6804225A74FB6800221A74012327E002
:10353400F86800F09DFBB861BB69B3F1FF3F18D098
:10354400BA69FB699A4214D2BB6903F5A83303F53F
:10355400C073BB61B969F86800F0A4FB0346002B93
:1035640007D0FB6804225A74FB6800221A740123F2
:1035740006E0FB6801225A74FB6800221A740023D7
:1035840018462037BD4680BDC5B3A291ABAAAAAAEE
:103594008051010080B586B000AFF860B9607A60F0
:1035A40007F1140300210A461A800A469A70FB6840
:1035B400002B02D0BB68002B01D101233AE007F1B4
:1035C400140300221946F868FFF756FE0346002B41
:1035D40001D001232EE0FB681A7BBB681A70FB68DC
:1035E400DA7BBB68DA70FB685A7BBB685A70FB688D
:1035F4009A7BBB689A707B68002B1AD0BB68DB7817
:10360400184600F0C7FB03461A46BB68DA70BB686D
:103614005B78184600F0BEFB03461A46BB685A7036
:10362400BB689B78184600F0B5FB03461A46BB6896
:103634009A70002318461837BD4680BD90B589B0EE
:1036440000AFF860B9607A600023FB6107F11403EE
:1036540000210A461A800A469A70FB68002B02D0A1
:10366400BB68002B01D101237DE0FB681B7C012B8F
:1036740001D1022377E0FB6801221A74FB6802225D
:103684005A7407F1140300221946F868FFF7F4FD91
:103694000346002B01D0012365E03B7D1A464FF41D
:1036A400616303FB02F27B7D19460B461B015B1A27
:1036B4009B001344BA7D1344BB617B68002B13D178
:1036C400BB681B781A464FF4616303FB02F2BB68C4
:1036D4005B7819460B461B015B1A9B001344BA68BE
:1036E40092781344FB611EE0BB681B78184600F017
:1036F4006FFB03461A464FF4616303FB02F4BB6895
:103704005B78184600F064FB03461A4613461B0117
:103714009B1A9B001C44BB689B78184600F058FB1E
:1037240003462344FB61FA69BB699A4205D2FB69EB
:1037340003F5A83303F5C073FB61F969F86800F079
:10374400B1FA0346002B07D0FB6804225A74FB68C5
:1037540000221A74012306E0FB6801225A74FB68F4
:1037640000221A74002318462437BD4690BD00BFBA
:1037740090B589B000AFF860B9607A600023FB614E
:1037840007F1140300210A461A800A469A70FB685E
:10379400002B02D0BB68002B01D1012396E0FB680B
:1037A4001B7C012B01D1022390E0FB6801221A74D7
:1037B400FB6802225A7407F1140300221946F868C0
:1037C400FFF75AFD0346002B01D001237EE03B7D29
:1037D4001A464FF4616303FB02F27B7D19460B46E4
:1037E4001B015B1A9B001344BA7D1344BB617B68C5
:1037F400002B13D1BB681B781A464FF4616303FB9B
:1038040002F2BB685B7819460B461B015B1A9B00EE
:103814001344BA6892781344FB611EE0BB681B78BA
:10382400184600F0D5FA03461A464FF4616303FBC9
:1038340002F4BB685B78184600F0CAFA03461A46DD
:1038440013461B019B1A9B001C44BB689B781846BB
:1038540000F0BEFA03462344FB61FA69BB699A424D
:1038640005D2FB6903F5A83303F5C073FB61F9695D
:10387400F86800F017FA0346002B07D0FB6804220F
:103884005A74FB6800221A7401231FE0FB681B684A
:103894006FF002025A60FB681B68FA6812681268CB
:1038A40042F002021A600B4A0A4B1B6843F40033CD
:1038B4001360084A074B9B6843F400339360FB682A
:1038C40001225A74FB6800221A7400231846243714
:1038D400BD4690BD0004014080B586B000AFF860DD
:1038E400B9607A603B6000237B61FB68002B02D0E7
:1038F400BB68002B01D101235AE0F86800F0B8F945
:1039040078617B692C4AA2FB0323D90A2B4BA3FBC6
:1039140001231A0913465B001344DB00CA1AD2B20E
:10392400BB681A707A69244BA3FB0213DB0A4FF4B9
:10393400616101FB03F3D31A214AA2FB03235B0950
:10394400DAB2BB685A707B691B4AA2FB0312D20A23
:103954004FF4616101FB02F29A1A194BA3FB0213A3
:1039640059090B461B015B1A9B00D11ACAB2BB68EA
:103974009A703B68002B1AD0BB681B78184600F07D
:1039840009FA03461A46BB681A70BB685B78184686
:1039940000F000FA03461A46BB685A70BB689B786D
:1039A400184600F0F7F903461A46BB689A700023DC
:1039B40018461837BD4680BDC5B3A291ABAAAAAAC2
:1039C4008988888880B582B000AF786039607B6868
:1039D400002B01D101234BE07B681B7C012B01D11F
:1039E400022345E07B6801221A747B6802225A7420
:1039F4007B681B687A681268126822F002021A60F7
:103A0400786800F077F90346002B07D07B6804221E
:103A14005A747B6800221A74012329E07B681B68AE
:103A24006FF002025A607B681B684FF6FF721A62DD
:103A34007B681B684FF6FF725A620F4A0E4B1B6875
:103A440023F400331360786800F07CF90346002BFC
:103A540007D07B6804225A747B6800221A740123FD
:103A640006E07B6801225A747B6800221A740023E2
:103A740018460837BD4680BD0004014080B582B0B9
:103A840000AF78607B681B681B6803F00203002B9F
:103A94000ED07B681B685B6803F00203002B07D021
:103AA400786800F013F87B681B686FF002025A60B4
:103AB400054B4FF400325A617B6801225A7400BFEF
:103AC4000837BD4680BD00BF0004014080B483B008
:103AD40000AF786000BF0C37BD4680BC704700BFA4
:103AE40080B584B000AF78603960FEF7D1FBF86030
:103AF4007B68002B15D1012323E03B68B3F1FF3F22
:103B04000FD03B68002B07D0FEF7C2FB0246FB68D0
:103B1400D21A3B689A4204D97B6803225A7403235D
:103B24000FE07B681B685B6803F00203002BE4D0A2
:103B34007B681B686FF002025A607B6801225A742A
:103B4400002318461037BD4680BD00BF80B483B043
:103B540000AF78607B685B7CDBB218460C37BD46EF
:103B640080BC704780B584B000AF78600023FB60F0
:103B74007B68002B01D101231DE07B681B687A68F8
:103B84001268526822F008025A60FEF781FBF8605E
:103B940009E0FEF77DFB0246FB68D31AB3F57A7F92
:103BA40001D9032307E07B681B685B6803F0080303
:103BB400002BEED0002318461037BD4680BD00BF51
:103BC40080B487B000AF786000237B8200233B82FF
:103BD4000023FB8100237B617B681B689B697B82DC
:103BE4007B681B68DB69FB817B681B689B693B8284
:103BF4007A8A3B8A9A4208D03B8A1A047B681B68FB
:103C0400DB699BB213437B6104E07B8A1A04FB8962
:103C140013437B617B6918461C37BD4680BC7047E3
:103C240080B584B000AF786039600023FB73786896
:103C340000F060F80346002B02D00123FB7311E06F
:103C44007B681B683A68120C9A617B681B683A6847
:103C540092B2DA61786800F075F80346002B01D05F
:103C64000123FB73FB7B18461037BD4680BD00BFA4
:103C740080B485B000AF78600023FB810023BB8152
:103C84007B681B681B6AFB817B681B685B6ABB8162
:103C9400FB891A04BB89134318461437BD4680BCFC
:103CA400704700BF80B584B000AF786039600023EE
:103CB400FB73786800F01EF80346002B02D0012342
:103CC400FB7311E07B681B683A68120C1A627B680C
:103CD4001B683A6892B25A62786800F033F8034677
:103CE400002B01D00123FB73FB7B18461037BD4624
:103CF40080BD00BF80B584B000AF78600023FB6056
:103D0400FEF7C6FAF86009E0FEF7C2FA0246FB685D
:103D1400D31AB3F57A7F01D903230FE07B681B68BC
:103D24005B6803F02003002BEED07B681B687A6885
:103D34001268526842F010025A6000231846103785
:103D4400BD4680BD80B584B000AF78600023FB60C1
:103D54007B681B687A681268526822F010025A6005
:103D6400FEF796FAF86009E0FEF792FA0246FB685D
:103D7400D31AB3F57A7F01D9032307E07B681B6864
:103D84005B6803F02003002BEED0002318461037A5
:103D9400BD4680BD80B485B000AF0346FB710023EF
:103DA400FB6005E0FB680133FB60FB790A3BFB71B8
:103DB400FB79092BF6D8FB68DBB21B01DAB2FB797D
:103DC4001343DBB218461437BD4680BC704700BFAE
:103DD40080B485B000AF0346FB710023FB60FB7920
:103DE4001B09DBB21A4613469B0013445B00FB60BD
:103DF400FB7903F00F03DAB2FB68DBB21344DBB2E6
:103E040018461437BD4680BC704700BF80B586B0E5
:103E140000AF7860396000237B6100233B6100239D
:103E2400FB600023BB607B68DB7B7B617B685B7B27
:103E34003B617B689B7BFB600023BB606FE03B695D
:103E4400012B11D03B69032B0ED03B69052B0BD002
:103E54003B69072B08D03B69082B05D03B690A2B2B
:103E640002D03B690C2B17D1FB681E2B03D8FB68CF
:103E74000133FB6050E03B690C2B05D03B690133F7
:103E84003B610123FB6047E001233B610123FB60AD
:103E94007B6901337B613FE03B69042B08D03B69BC
:103EA400062B05D03B69092B02D03B690B2B0CD1A7
:103EB400FB681D2B03D8FB680133FB602CE03B69D6
:103EC40001333B610123FB6026E03B69022B23D1D4
:103ED400FB681B2B03D8FB680133FB601CE0FB6809
:103EE4001C2B11D17B699BB2184600F039F80346AC
:103EF400002B03D0FB680133FB600DE03B69013309
:103F04003B610123FB6007E0FB681D2B04D13B6987
:103F140001333B610123FB60BB680133BB60BA68BA
:103F24003B689A428BD37B69DAB27B68DA733B696C
:103F3400DAB27B685A73FB68DAB27B689A733B69BE
:103F4400DBB2FA68D2B21946786900F03BF803464E
:103F54001A467B681A7300BF1837BD4680BD00BF80
:103F640080B483B000AF0346FB80FB8803F00303F7
:103F74009BB2002B01D000231DE0FB88104AA2FB5A
:103F840003125209642101FB02F29B1A9BB2002B1B
:103F940001D001230FE0FB88094AA2FB0312D209D6
:103FA4004FF4C87101FB02F29B1A9BB2002B01D1A2
:103FB400012300E0002318460C37BD4680BC70473F
:103FC4001F85EB5190B484B000AF78600B46FB7052
:103FD4001346BB700023BB600023FB607B6803F5C2
:103FE400FA63BB60FB78022B30D8FA7813465B0087
:103FF4001344DB009B1A2F4A82FB03125210DB1777
:10400400D21ABB7813441A46BB681A44BB68013BF6
:104014009B081A44BB68013B2749A1FB03135B09B6
:10402400D21ABB68013B2449A1FB0313DB091344E7
:104034001A1D224BA2FB0334111B49080B199908C2
:104044000B46DB005B1AD31AFB602CE0FA781346AC
:104054005B001344DB009B1A164A82FB03125210C6
:10406400DB17D21ABB7813441A46BB681A44BB68E0
:104074009B081A44BB681049A1FB03135B09D21ABD
:10408400BB680D49A1FB0313DB0913449A1C0B4BBA
:10409400A2FB0334111B49080B1999080B46DB00DA
:1040A4005B1AD31AFB60FB68DBB218461037BD46B7
:1040B40090BC7047398EE3381F85EB512549922413
:1040C40080B485B000AF78600023FB607B68002B70
:1040D40001D1012339E07B6893F82130002B03D10F
:1040E4007B68002283F820207B68022283F8212049
:1040F4007B681B681B68FB60FB6823F47F5323F019
:104104003003FB607B685A687B689B681A437B6852
:10411400DB681A437B681B691A437B685B691A4333
:104124007B689B691A437B68DB691343FA68134312
:10413400FB607B681B68FA681A607B6800225A631C
:104144007B68012283F82120002318461437BD46DA
:1041540080BC704780B483B000AF78607B68002B6C
:1041640001D10123ACE27B6893F82130022B01D109
:104174000123A5E27B681B687A681268126822F042
:1041840001021A607B681B6800221A607B681B6846
:1041940000225A607B681B6800229A607B681B6857
:1041A4000022DA607B681B681A469A4B9A4263D9EC
:1041B400994A7B681B681946984B994259D07B6889
:1041C4001B681946964B994251D07B681B68194667
:1041D400944B994248D07B681B681946924B99428C
:1041E4003FD07B681B681946904B994236D07B6858
:1041F4001B6819468E4B99422DD07B681B68194663
:10420400844B994224D07B681B681946894B994298
:104214001CD07B681B681946874B994214D07B6875
:104224001B681946854B99420BD07B681B6819465D
:10423400834B994202D14FF400531BE04FF40033F7
:1042440018E04FF4007315E0202313E0022311E07B
:104254004FF000730EE04FF400130BE04FF4003303
:1042640008E04FF4005305E04FF4007302E020230C
:1042740000E00223536062E0724A7B681B681946BF
:10428400664B994259D07B681B681946644B994226
:1042940051D07B681B681946624B994248D07B68B1
:1042A4001B681946604B99423FD07B681B681946CE
:1042B4005E4B994236D07B681B6819465C4B994229
:1042C4002DD07B681B681946524B994224D07B68D9
:1042D4001B681946574B99421CD07B681B681946CA
:1042E400554B994214D07B681B681946534B99422D
:1042F4000BD07B681B681946514B994202D14FF48D
:1043040000531BE04FF4003318E04FF4007315E042
:10431400202313E0022311E04FF000730EE04FF46A
:1043240000130BE04FF4003308E04FF4005305E0B2
:104334004FF4007302E0202300E0022353607B6803
:104344001B681A46334B9A427ED9334A7B681B68F2
:104354001946324B994259D07B681B681946304B39
:10436400994251D07B681B6819462E4B994248D01C
:104374007B681B6819462C4B99423FD07B681B68AD
:1043840019462A4B994236D07B681B681946284B3C
:1043940099422DD07B681B6819461E4B994224D044
:1043A4007B681B681946234B99421CD07B681B68A9
:1043B4001946214B994214D07B681B6819461F4B40
:1043C40099420BD07B681B6819461D4B994202D158
:1043D4004FF400431BE04FF4002318E04FF4006354
:1043E40015E0802313E0082311E04FF000630EE092
:1043F4004FF400030BE04FF4002308E04FF40043B4
:1044040005E04FF4006302E0802300E008235360DA
:104414007DE000BF8000024000040240080002402A
:104424001C00024030000240440002405800024098
:104434006C000240080402401C04024030040240A4
:104444004404024000000240A04A7B681B681946ED
:104454009F4B994259D07B681B6819469D4B9942E2
:1044640051D07B681B6819469B4B994248D07B68A6
:104474001B681946994B99423FD07B681B681946C3
:10448400974B994236D07B681B681946954B9942E5
:104494002DD07B681B681946934B994224D07B68C6
:1044A4001B681946914B99421CD07B681B681946BE
:1044B4008F4B994214D07B681B6819468D4B9942E7
:1044C4000BD07B681B6819468B4B994202D14FF481
:1044D40000431BE04FF4002318E04FF4006315E0A1
:1044E400802313E0082311E04FF000630EE04FF443
:1044F40000030BE04FF4002308E04FF4004305E011
:104504004FF4006302E0802300E0082353607B68DB
:104514001B681A46744B9A4263D9784A7B681B68B5
:1045240019466B4B994259D07B681B681946694BF5
:10453400994251D07B681B681946674B994248D011
:104544007B681B681946654B99423FD07B681B68A2
:104554001946634B994236D07B681B681946614BF8
:1045640099422DD07B681B6819465F4B994224D031
:104574007B681B6819465D4B99421CD07B681B689D
:1045840019465B4B994214D07B681B681946594BFA
:1045940099420BD07B681B681946574B994202D14C
:1045A4004FF480431BE04FF4802318E04FF4806302
:1045B40015E0402313E0042311E04FF080630EE084
:1045C4004FF480030BE04FF4802308E04FF4804362
:1045D40005E04FF4806302E0402300E004235360CD
:1045E40062E03A4A7B681B681946394B994259D0B4
:1045F4007B681B681946374B994251D07B681B680E
:104604001946354B994248D07B681B681946334B91
:1046140099423FD07B681B681946314B994236D08A
:104624007B681B6819462F4B99422DD07B681B6809
:1046340019462D4B994224D07B681B6819462B4B95
:1046440099421CD07B681B681946294B994214D0A7
:104654007B681B681946274B99420BD07B681B6803
:104664001946254B994202D14FF480431BE04FF485
:10467400802318E04FF4806315E0402313E0042303
:1046840011E04FF080630EE04FF480030BE04FF431
:10469400802308E04FF4804305E04FF4806302E098
:1046A400402300E0042353607B6800225A637B6844
:1046B400002283F821207B68002283F82020002335
:1046C40018460C37BD4680BC704700BF000002404E
:1046D400080002401C000240300002404400024036
:1046E400580002406C00024080000240080402406E
:1046F4001C0402403004024044040240000402400E
:1047040080B584B000AFF860B9607A603B60FB6844
:1047140093F82030012B01D102231EE0FB68012213
:1047240083F82020FB68022283F82120FB681B68A1
:10473400FA681268126822F001021A603B687A680B
:10474400B968F86801F070FBFB681B68FA681268C6
:10475400126842F001021A60002318461037BD4661
:1047640080BD00BF80B584B000AFF860B9607A60E6
:104774003B60FB6893F82030012B01D1022336E023
:10478400FB68012283F82020FB68022283F82120A1
:10479400FB681B68FA681268126822F001021A604A
:1047A4003B687A68B968F86801F03EFBFB681B68EF
:1047B400FA681268126842F002021A60FB681B6809
:1047C400FA681268126842F004021A60FB681B68F7
:1047D400FA681268126842F008021A60FB681B68E3
:1047E400FA681268126842F001021A60002318463F
:1047F4001037BD4680BD00BF80B584B000AF78607F
:104804000023FB607B681B687A681268126822F0D8
:1048140001021A60FDF73CFDF86017E0FDF738FD72
:104824000246FB68D31AB3F57A7F0FD97B685B6BBA
:1048340043F020027B685A637B68032283F82120BB
:104844007B68002283F8202003230FE07B681B6829
:104854001B6803F00103002BE0D17B68012283F87D
:1048640021207B68002283F820200023184610377B
:10487400BD4680BD80B586B000AFF860B9607A608F
:1048840000233B61BB68002B62D1FB681B681A469E
:104894009B4B9A4259D0FB681B681A46994B9A4223
:1048A40051D0FB681B681A46974B9A4248D0FB6864
:1048B4001B681A46954B9A423FD0FB681B681A4600
:1048C400934B9A4236D0FB681B681A46914B9A4226
:1048D4002DD0FB681B681A468F4B9A4224D0FB6884
:1048E4001B681A468D4B9A421CD0FB681B681A46FB
:1048F4008B4B9A4214D0FB681B681A46894B9A4228
:104904000BD0FB681B681A46874B9A4202D14FF4BE
:1049140000531BE04FF4003318E04FF4007315E02C
:10492400202313E0022311E04FF000730EE04FF454
:1049340000130BE04FF4003308E04FF4005305E09C
:104944004FF4007302E0202300E002237B6161E066
:10495400FB681B681A466A4B9A4259D0FB681B686D
:104964001A46684B9A4251D0FB681B681A46664B3C
:104974009A4248D0FB681B681A46644B9A423FD05F
:10498400FB681B681A46624B9A4236D0FB681B6868
:104994001A46604B9A422DD0FB681B681A465E4B40
:1049A4009A4224D0FB681B681A465C4B9A421CD07E
:1049B400FB681B681A465A4B9A4214D0FB681B6862
:1049C4001A46584B9A420BD0FB681B681A46564B42
:1049D4009A4202D14FF480431BE04FF4802318E045
:1049E4004FF4806315E0402313E0042311E04FF0FB
:1049F40080630EE04FF480030BE04FF4802308E063
:104A04004FF4804305E04FF4806302E0402300E06C
:104A140004237B61FDF73CFC38610CE2FB681B68F6
:104A24001A463D4B9A4240F28380404B1A68FB6819
:104A34001B681946324B994259D0FB681B681946CA
:104A4400304B994251D0FB681B6819462E4B994252
:104A540048D0FB681B6819462C4B99423FD0FB6831
:104A64001B6819462A4B994236D0FB681B681946C5
:104A7400284B99422DD0FB681B681946264B994256
:104A840024D0FB681B681946244B99421CD0FB6850
:104A94001B681946224B994214D0FB681B681946BF
:104AA400204B99420BD0FB681B6819461E4B994258
:104AB40002D14FF400431BE04FF4002318E04FF4FD
:104AC400006315E0802313E0082311E04FF0006336
:104AD4000EE04FF400030BE04FF4002308E04FF422
:104AE400004305E04FF4006302E0802300E0082364
:104AF4001340002B14BF01230023DBB281E000BF6D
:104B0400080002401C000240300002404400024001
:104B1400580002406C000240800002400804024039
:104B24001C040240300402404404024000040240D9
:104B34009B4B1A68FB681B6819469A4B994259D0DB
:104B4400FB681B681946984B994251D0FB681B6857
:104B54001946964B994248D0FB681B681946944BFA
:104B640099423FD0FB681B681946924B994236D054
:104B7400FB681B681946904B99422DD0FB681B6853
:104B840019468E4B994224D0FB681B6819468C4BFE
:104B940099421CD0FB681B6819468A4B994214D071
:104BA400FB681B681946884B99420BD0FB681B684D
:104BB4001946864B994202D14FF400431BE04FF44F
:104BC400002318E04FF4006315E0802313E008236A
:104BD40011E04FF000630EE04FF400030BE04FF4DC
:104BE400002308E04FF4004305E04FF4006302E0C3
:104BF400802300E008231340002B14BF012300236B
:104C0400DBB2002B00F0F880FB681B681A466B4B84
:104C14009A4263D96E4AFB681B681946614B9942F4
:104C240059D0FB681B6819465F4B994251D0FB6809
:104C34001B6819465D4B994248D0FB681B681946AE
:104C44005B4B99423FD0FB681B681946594B99420C
:104C540036D0FB681B681946574B99422DD0FB6828
:104C64001B681946554B994224D0FB681B681946AA
:104C7400534B99421CD0FB681B681946514B99420F
:104C840014D0FB681B6819464F4B99420BD0FB6844
:104C94001B6819464D4B994202D14FF400431BE067
:104CA4004FF4002318E04FF4006315E0802313E071
:104CB400082311E04FF000630EE04FF400030BE013
:104CC4004FF4002308E04FF4004305E04FF4006381
:104CD40002E0802300E0082353607DE0304AFB6853
:104CE4001B6819462F4B994274D0FB681B68194600
:104CF4002D4B994251D0FB681B6819462B4B9942A6
:104D040048D0FB681B681946294B99423FD0FB6881
:104D14001B681946274B994236D0FB681B68194615
:104D2400254B99422DD0FB681B681946234B9942A9
:104D340024D0FB681B681946214B99421CD0FB68A0
:104D44001B6819461F4B994214D0FB681B6819460F
:104D54001D4B99420BD0FB681B6819461B4B9942AB
:104D640002D14FF4004336E04FF4002333E04FF414
:104D7400006330E080232EE008232CE04FF0006332
:104D840029E04FF4000326E04FF4002323E04FF41E
:104D9400004320E04FF400631DE080231BE000BFCC
:104DA40000000240080002401C00024030000240A3
:104DB40044000240580002406C000240800002405F
:104DC400080402401C04024030040240440402402F
:104DD4000004024008235360FB685B6B43F001024C
:104DE400FB685A63FB68042283F82120FB680022D5
:104DF40083F82020012300E27B68B3F1FF3F1AD03F
:104E04007B68002B07D0FDF743FA02463B69D21AB0
:104E14007B689A420FD9FB685B6B43F02002FB6806
:104E24005A63FB68032283F82120FB68002283F87D
:104E340020200323E1E1FB681B681A469E4B9A423B
:104E440009D99E4B1A687B691340002B0CBF0123C0
:104E54000023DBB208E09A4B1A687B691340002BED
:104E64000CBF01230023DBB2002B7FF4D7ADBB685A
:104E7400002B40F0D280FB681B681A468E4B9A4286
:104E840063D98E4AFB681B6819468E4B994259D0E8
:104E9400FB681B6819468C4B994251D0FB681B6810
:104EA40019468A4B994248D0FB681B681946884BBF
:104EB40099423FD0FB681B681946864B994236D00D
:104EC400FB681B681946844B99422DD0FB681B680C
:104ED4001946794B994224D0FB681B6819467F4BCD
:104EE40099421CD0FB681B6819467D4B994214D02B
:104EF400FB681B6819467B4B99420BD0FB681B6807
:104F04001946794B994202D14FF400531BE04FF4F8
:104F1400003318E04FF4007315E0202313E002235C
:104F240011E04FF000730EE04FF400130BE04FF468
:104F3400003308E04FF4005305E04FF4007302E03F
:104F4400202300E00223536062E05D4AFB681B6893
:104F540019465C4B994259D0FB681B6819465A4B59
:104F6400994251D0FB681B681946584B994248D066
:104F7400FB681B681946564B99423FD0FB681B6877
:104F84001946544B994236D0FB681B681946524B5C
:104F940099422DD0FB681B681946474B994224D08F
:104FA400FB681B6819464D4B99421CD0FB681B6873
:104FB40019464B4B994214D0FB681B681946494B60
:104FC40099420BD0FB681B681946474B994202D1A2
:104FD4004FF400531BE04FF4003318E04FF4007318
:104FE40015E0202313E0022311E04FF000730EE0DC
:104FF4004FF400130BE04FF4003308E04FF4005378
:1050040005E04FF4007302E0202300E00223536024
:10501400FB68012283F82120EAE0FB681B681A463A
:10502400254B9A427DD9254AFB681B681946254BB6
:10503400994273D0FB681B681946234B99426BD085
:10504400FB681B681946214B994262D0FB681B68B8
:1050540019461F4B994259D0FB681B6819461D4BD2
:10506400994250D0FB681B6819461B4B994247D0A4
:10507400FB681B681946104B99423ED0FB681B68BD
:105084001946164B994236D0FB681B681946144BD7
:1050940099422ED0FB681B681946124B994225D0C1
:1050A400FB681B681946104B994202D14FF48043A8
:1050B40035E04FF4802332E08000024000040240D7
:1050C40000000240080002401C0002403000024080
:1050D40044000240580002406C00024008040240B0
:1050E4001C04024030040240440402404FF4806334
:1050F40015E0402313E0042311E04FF080630EE039
:105104004FF480030BE04FF4802308E04FF4804316
:1051140005E04FF4806302E0402300E00423536081
:1051240062E0384AFB681B681946374B994259D0EC
:10513400FB681B681946354B994251D0FB681B68C4
:105144001946334B994248D0FB681B681946314BCA
:1051540099423FD0FB681B6819462F4B994236D0C1
:10516400FB681B6819462D4B99422DD0FB681B68C0
:1051740019462B4B994224D0FB681B681946294BCE
:1051840099421CD0FB681B681946274B994214D0DE
:10519400FB681B681946254B99420BD0FB681B68BA
:1051A4001946234B994202D14FF480431BE04FF43C
:1051B400802318E04FF4806315E0402313E00423B8
:1051C40011E04FF080630EE04FF480030BE04FF4E6
:1051D400802308E04FF4804305E04FF4806302E04D
:1051E400402300E004235360FB68112283F821204C
:1051F400FB68002283F82020002318461837BD4698
:1052040080BD00BF00000240080002401C000240B4
:105214003000024044000240580002406C0002404A
:1052240080000240080402401C0402403004024092
:105234004404024080B582B000AF78607B681B688C
:105244001A469F4B9A4269D99E4B1A687B681B6821
:1052540019469D4B994259D07B681B6819469B4B54
:10526400994251D07B681B681946994B994248D0A2
:105274007B681B681946974B99423FD07B681B6833
:105284001946954B994236D07B681B681946934B57
:1052940099422DD07B681B681946894B994224D0CA
:1052A4007B681B6819468E4B99421CD07B681B682F
:1052B40019468C4B994214D07B681B6819468A4B5B
:1052C40099420BD07B681B681946884B994202D1DE
:1052D4004FF400431BE04FF4002318E04FF4006345
:1052E40015E0802313E0082311E04FF000630EE083
:1052F4004FF400030BE04FF4002308E04FF40043A5
:1053040005E04FF4006302E0802300E0082313402B
:10531400002B14BF01230023DBB268E0744B1A682E
:105324007B681B681946684B994259D07B681B6897
:105334001946664B994251D07B681B681946644BE9
:10534400994248D07B681B681946624B99423FD00A
:105354007B681B681946604B994236D07B681B6892
:1053640019465E4B99422DD07B681B681946544BF5
:10537400994224D07B681B681946594B99421CD02A
:105384007B681B681946574B994214D07B681B688D
:105394001946554B99420BD07B681B681946534BF1
:1053A400994202D14FF400431BE04FF4002318E06C
:1053B4004FF4006315E0802313E0082311E04FF05D
:1053C40000630EE04FF400030BE04FF4002308E009
:1053D4004FF4004305E04FF4006302E0802300E053
:1053E40008231340002B14BF01230023DBB2002B3E
:1053F40000F00D817B681B681B6803F00803002B19
:1054040000F005817B681B687A681268126822F0D4
:1054140008021A607B681B681A46294B9A427DD998
:10542400284A7B681B681946274B994273D07B68CE
:105434001B681946254B99426BD07B681B6819463B
:10544400234B994262D07B681B681946214B9942D1
:1054540059D07B681B6819461F4B994250D07B6812
:105464001B6819461D4B994247D07B681B68194637
:10547400134B99423ED07B681B681946184B9942DE
:105484001CD07B681B681946164B994214D07B6864
:105494001B681946144B99420BD07B681B6819464C
:1054A400124B994202D14FF4004335E04FF40023EC
:1054B40032E04FF400632FE080232DE008232BE03B
:1054C4008000024000040240080002401C00024028
:1054D4003000024044000240580002406C00024088
:1054E400080402401C040240300402404404024008
:1054F400000002404FF000630EE04FF400030BE0A5
:105504004FF4002308E04FF4004305E04FF4006338
:1055140002E0802300E00823536062E09E4A7B6837
:105524001B6819469D4B994259D07B681B681946E4
:105534009B4B994251D07B681B681946994B994201
:1055440048D07B681B681946974B99423FD07B68CB
:105554001B681946954B994236D07B681B681946DF
:10556400934B99422DD07B681B681946914B994205
:1055740024D07B681B6819468F4B99421CD07B68EA
:105584001B6819468D4B994214D07B681B681946D9
:105594008B4B99420BD07B681B681946894B994207
:1055A40002D14FF400431BE04FF4002318E04FF402
:1055B400006315E0802313E0082311E04FF000633B
:1055C4000EE04FF400030BE04FF4002308E04FF427
:1055D400004305E04FF4006302E0802300E0082369
:1055E40053607B685B6B43F001027B685A637B68A2
:1055F400042283F821207B68002283F820207B6822
:105604001B6B002B03D07B681B6B786898477B6807
:105614001B681A46674B9A4269D96B4B1A687B68B8
:105624001B6819465D4B994259D07B681B68194623
:105634005B4B994251D07B681B681946594B994280
:1056440048D07B681B681946574B99423FD07B680A
:105654001B681946554B994236D07B681B6819461E
:10566400534B99422DD07B681B681946514B994284
:1056740024D07B681B6819464F4B99421CD07B6829
:105684001B6819464D4B994214D07B681B68194618
:105694004B4B99420BD07B681B681946494B994286
:1056A40002D14FF480431BE04FF4802318E04FF401
:1056B400806315E0402313E0042311E04FF080637E
:1056C4000EE04FF480030BE04FF4802308E04FF426
:1056D400804305E04FF4806302E0402300E00423AC
:1056E4001340002B14BF01230023DBB283E02A4BB9
:1056F4001A687B681B681946284B994274D07B68EA
:105704001B681946264B99426CD07B681B68194666
:10571400244B994263D07B681B681946224B9942FB
:105724005AD07B681B681946204B994251D07B683C
:105734001B6819461E4B994248D07B681B68194662
:105744001C4B994224D07B681B6819461A4B99421A
:105754001CD07B681B681946184B994214D07B688F
:105764001B681946164B99420BD07B681B68194677
:10577400144B994202D14FF4804336E04FF4802316
:1057840033E04FF4806330E040232EE004232CE028
:105794004FF0806329E000BF00000240080002408F
:1057A4001C00024030000240440002405800024005
:1057B4006C00024080000240080402401C040240C5
:1057C4003004024044040240000402404FF48003C9
:1057D4000BE04FF4802308E04FF4804305E04FF4DE
:1057E400806302E0402300E004231340002B14BF35
:1057F40001230023DBB2002B00F0F0807B681B68E0
:105804001B6803F00403002B00F0E8807B681B682E
:105814001B6803F02003002B07D17B681B687A68A0
:105824001268126822F004021A607B681B681A4628
:105834009F4B9A4263D99F4A7B681B6819469E4BCB
:10584400994259D07B681B6819469C4B994251D0A8
:105854007B681B6819469A4B994248D07B681B6841
:105864001946984B99423FD07B681B681946964B62
:10587400994236D07B681B681946944B99422DD0C7
:105884007B681B6819468A4B994224D07B681B6845
:1058940019468F4B99421CD07B681B6819468D4B67
:1058A400994214D07B681B6819468B4B99420BD0E4
:1058B4007B681B681946894B994202D14FF4804397
:1058C4001BE04FF4802318E04FF4806315E040237D
:1058D40013E0042311E04FF080630EE04FF48003E3
:1058E4000BE04FF4802308E04FF4804305E04FF4CD
:1058F400806302E0402300E00423536062E0784ABE
:105904007B681B6819466C4B994259D07B681B68AD
:1059140019466A4B994251D07B681B681946684BFB
:10592400994248D07B681B681946664B99423FD020
:105934007B681B681946644B994236D07B681B68A8
:105944001946624B99422DD07B681B681946584B07
:10595400994224D07B681B6819465D4B99421CD040
:105964007B681B6819465B4B994214D07B681B68A3
:105974001946594B99420BD07B681B681946574B03
:10598400994202D14FF480431BE04FF4802318E086
:105994004FF4806315E0402313E0042311E04FF03B
:1059A40080630EE04FF480030BE04FF4802308E0A3
:1059B4004FF4804305E04FF4806302E0402300E0AD
:1059C400042353607B68112283F821207B68DB6AFF
:1059D400002B03D07B68DB6A786898477B681B6878
:1059E4001A46334B9A4240F28580324B1A687B68E0
:1059F4001B681946304B994274D07B681B68194662
:105A04002E4B994251D07B681B6819462C4B994206
:105A140048D07B681B6819462A4B99423FD07B6863
:105A24001B681946284B994236D07B681B68194677
:105A3400264B99422DD07B681B6819461C4B994212
:105A440024D07B681B681946214B99421CD07B6883
:105A54001B6819461F4B994214D07B681B68194672
:105A64001D4B99420BD07B681B6819461B4B99420E
:105A740002D14FF4005336E04FF4003333E04FF4D7
:105A8400007330E020232EE002232CE04FF000735B
:105A940029E04FF4001326E04FF4003323E04FF4E1
:105AA400005320E04FF400731DE020231BE000BFEF
:105AB4008000024000040240080002401C00024032
:105AC4003000024044000240580002406C00024092
